{
  "contractName": "Donate",
  "abi": [
    {
      "inputs": [],
      "name": "isStopped",
      "outputs": [
        {
          "internalType": "bool",
          "name": "",
          "type": "bool"
        }
      ],
      "stateMutability": "view",
      "type": "function",
      "constant": true
    },
    {
      "inputs": [],
      "name": "numOfFunders",
      "outputs": [
        {
          "internalType": "uint256",
          "name": "",
          "type": "uint256"
        }
      ],
      "stateMutability": "view",
      "type": "function",
      "constant": true
    },
    {
      "inputs": [],
      "name": "owner",
      "outputs": [
        {
          "internalType": "address",
          "name": "",
          "type": "address"
        }
      ],
      "stateMutability": "view",
      "type": "function",
      "constant": true
    },
    {
      "stateMutability": "payable",
      "type": "receive",
      "payable": true
    },
    {
      "inputs": [],
      "name": "addFunds",
      "outputs": [],
      "stateMutability": "payable",
      "type": "function",
      "payable": true
    },
    {
      "inputs": [],
      "name": "stopContract",
      "outputs": [],
      "stateMutability": "nonpayable",
      "type": "function"
    },
    {
      "inputs": [],
      "name": "resumeContract",
      "outputs": [],
      "stateMutability": "nonpayable",
      "type": "function"
    },
    {
      "inputs": [
        {
          "internalType": "uint256",
          "name": "withdrawAmount",
          "type": "uint256"
        }
      ],
      "name": "withdraw",
      "outputs": [],
      "stateMutability": "nonpayable",
      "type": "function"
    },
    {
      "inputs": [],
      "name": "emergencyWithdraw",
      "outputs": [],
      "stateMutability": "nonpayable",
      "type": "function"
    },
    {
      "inputs": [],
      "name": "getAllFunders",
      "outputs": [
        {
          "internalType": "address[]",
          "name": "",
          "type": "address[]"
        }
      ],
      "stateMutability": "view",
      "type": "function",
      "constant": true
    },
    {
      "inputs": [
        {
          "internalType": "uint8",
          "name": "index",
          "type": "uint8"
        }
      ],
      "name": "getFunderAtIndex",
      "outputs": [
        {
          "internalType": "address",
          "name": "",
          "type": "address"
        }
      ],
      "stateMutability": "view",
      "type": "function",
      "constant": true
    }
  ],
  "bytecode": "0x60806040526000600260006101000a81548160ff02191690831515021790555034801561002b57600080fd5b50336000806101000a81548173ffffffffffffffffffffffffffffffffffffffff021916908373ffffffffffffffffffffffffffffffffffffffff160217905550610e848061007b6000396000f3fe6080604052600436106100955760003560e01c80638da5cb5b116100595780638da5cb5b14610174578063a26759cb1461019f578063af7f2c9b146101a9578063c4bc5da5146101d4578063db2e21bc146101eb5761009c565b80630a93cf33146100a157806312253a6c146100de5780632e1a7d4d146100f55780633f683b6a1461011e5780636fbbb55d146101495761009c565b3661009c57005b600080fd5b3480156100ad57600080fd5b506100c860048036038101906100c391906109e5565b610202565b6040516100d59190610b61565b60405180910390f35b3480156100ea57600080fd5b506100f3610242565b005b34801561010157600080fd5b5061011c600480360381019061011791906109bc565b6102ed565b005b34801561012a57600080fd5b506101336104b3565b6040516101409190610b9e565b60405180910390f35b34801561015557600080fd5b5061015e6104c6565b60405161016b9190610b7c565b60405180910390f35b34801561018057600080fd5b5061018961060c565b6040516101969190610b61565b60405180910390f35b6101a7610630565b005b3480156101b557600080fd5b506101be61076a565b6040516101cb9190610c19565b60405180910390f35b3480156101e057600080fd5b506101e9610770565b005b3480156101f757600080fd5b5061020061081b565b005b6000600460008360ff16815260200190815260200160002060009054906101000a900473ffffffffffffffffffffffffffffffffffffffff169050919050565b60008054906101000a900473ffffffffffffffffffffffffffffffffffffffff1673ffffffffffffffffffffffffffffffffffffffff163373ffffffffffffffffffffffffffffffffffffffff16146102d0576040517f08c379a00000000000000000000000000000000000000000000000000000000081526004016102c790610bb9565b60405180910390fd5b6001600260006101000a81548160ff021916908315150217905550565b60008054906101000a900473ffffffffffffffffffffffffffffffffffffffff1673ffffffffffffffffffffffffffffffffffffffff163373ffffffffffffffffffffffffffffffffffffffff161461037b576040517f08c379a000000000000000000000000000000000000000000000000000000000815260040161037290610bb9565b60405180910390fd5b600260009054906101000a900460ff161561039557600080fd5b8067016345785d8a00008111156103e1576040517f08c379a00000000000000000000000000000000000000000000000000000000081526004016103d890610bd9565b60405180910390fd5b60008060009054906101000a900473ffffffffffffffffffffffffffffffffffffffff1673ffffffffffffffffffffffffffffffffffffffff168360405161042890610b4c565b60006040518083038185875af1925050503d8060008114610465576040519150601f19603f3d011682016040523d82523d6000602084013e61046a565b606091505b50509050806104ae576040517f08c379a00000000000000000000000000000000000000000000000000000000081526004016104a590610bf9565b60405180910390fd5b505050565b600260009054906101000a900460ff1681565b6060600060015467ffffffffffffffff81111561050c577f4e487b7100000000000000000000000000000000000000000000000000000000600052604160045260246000fd5b60405190808252806020026020018201604052801561053a5781602001602082028036833780820191505090505b50905060005b600154811015610604576004600082815260200190815260200160002060009054906101000a900473ffffffffffffffffffffffffffffffffffffffff168282815181106105b7577f4e487b7100000000000000000000000000000000000000000000000000000000600052603260045260246000fd5b602002602001019073ffffffffffffffffffffffffffffffffffffffff16908173ffffffffffffffffffffffffffffffffffffffff168152505080806105fc90610cde565b915050610540565b508091505090565b60008054906101000a900473ffffffffffffffffffffffffffffffffffffffff1681565b600260009054906101000a900460ff161561064a57600080fd5b6000339050600360008273ffffffffffffffffffffffffffffffffffffffff1673ffffffffffffffffffffffffffffffffffffffff16815260200190815260200160002060009054906101000a900460ff16610767576000600160008154809291906106b590610cde565b9190505590506001600360008473ffffffffffffffffffffffffffffffffffffffff1673ffffffffffffffffffffffffffffffffffffffff16815260200190815260200160002060006101000a81548160ff021916908315150217905550816004600083815260200190815260200160002060006101000a81548173ffffffffffffffffffffffffffffffffffffffff021916908373ffffffffffffffffffffffffffffffffffffffff160217905550505b50565b60015481565b60008054906101000a900473ffffffffffffffffffffffffffffffffffffffff1673ffffffffffffffffffffffffffffffffffffffff163373ffffffffffffffffffffffffffffffffffffffff16146107fe576040517f08c379a00000000000000000000000000000000000000000000000000000000081526004016107f590610bb9565b60405180910390fd5b6000600260006101000a81548160ff021916908315150217905550565b60008054906101000a900473ffffffffffffffffffffffffffffffffffffffff1673ffffffffffffffffffffffffffffffffffffffff163373ffffffffffffffffffffffffffffffffffffffff16146108a9576040517f08c379a00000000000000000000000000000000000000000000000000000000081526004016108a090610bb9565b60405180910390fd5b600260009054906101000a900460ff166108c257600080fd5b60008060009054906101000a900473ffffffffffffffffffffffffffffffffffffffff1673ffffffffffffffffffffffffffffffffffffffff164760405161090990610b4c565b60006040518083038185875af1925050503d8060008114610946576040519150601f19603f3d011682016040523d82523d6000602084013e61094b565b606091505b505090508061098f576040517f08c379a000000000000000000000000000000000000000000000000000000000815260040161098690610bf9565b60405180910390fd5b50565b6000813590506109a181610e20565b92915050565b6000813590506109b681610e37565b92915050565b6000602082840312156109ce57600080fd5b60006109dc84828501610992565b91505092915050565b6000602082840312156109f757600080fd5b6000610a05848285016109a7565b91505092915050565b6000610a1a8383610a26565b60208301905092915050565b610a2f81610c89565b82525050565b610a3e81610c89565b82525050565b6000610a4f82610c44565b610a598185610c5c565b9350610a6483610c34565b8060005b83811015610a95578151610a7c8882610a0e565b9750610a8783610c4f565b925050600181019050610a68565b5085935050505092915050565b610aab81610c9b565b82525050565b6000610abe602183610c78565b9150610ac982610d56565b604082019050919050565b6000610ae1602383610c78565b9150610aec82610da5565b604082019050919050565b6000610b04600083610c6d565b9150610b0f82610df4565b600082019050919050565b6000610b27601083610c78565b9150610b3282610df7565b602082019050919050565b610b4681610cc7565b82525050565b6000610b5782610af7565b9150819050919050565b6000602082019050610b766000830184610a35565b92915050565b60006020820190508181036000830152610b968184610a44565b905092915050565b6000602082019050610bb36000830184610aa2565b92915050565b60006020820190508181036000830152610bd281610ab1565b9050919050565b60006020820190508181036000830152610bf281610ad4565b9050919050565b60006020820190508181036000830152610c1281610b1a565b9050919050565b6000602082019050610c2e6000830184610b3d565b92915050565b6000819050602082019050919050565b600081519050919050565b6000602082019050919050565b600082825260208201905092915050565b600081905092915050565b600082825260208201905092915050565b6000610c9482610ca7565b9050919050565b60008115159050919050565b600073ffffffffffffffffffffffffffffffffffffffff82169050919050565b6000819050919050565b600060ff82169050919050565b6000610ce982610cc7565b91507fffffffffffffffffffffffffffffffffffffffffffffffffffffffffffffffff821415610d1c57610d1b610d27565b5b600182019050919050565b7f4e487b7100000000000000000000000000000000000000000000000000000000600052601160045260246000fd5b7f4f6e6c79206f776e65722063616e2063616c6c20746869732066756e6374696f60008201527f6e00000000000000000000000000000000000000000000000000000000000000602082015250565b7f43616e6e6f74207769746864726177206d6f7265207468616e20302e3120657460008201527f6865720000000000000000000000000000000000000000000000000000000000602082015250565b50565b7f5472616e73666572206661696c65642e00000000000000000000000000000000600082015250565b610e2981610cc7565b8114610e3457600080fd5b50565b610e4081610cd1565b8114610e4b57600080fd5b5056fea264697066735822122095cec4985ec90355bea0bf5b66b3bce0eac3ee264590b4c92a7ec70297a9e6ae64736f6c63430008040033",
  "immutableReferences": {},
  "source": "// SPDX-License-Identifier: MIT\npragma solidity >=0.4.22 <0.9.0;\nimport \"./Owned.sol\";\nimport \"./IDonate.sol\";\n\ncontract Donate is Owned, IDonate {\n\n  uint public numOfFunders;\n  bool public isStopped = false;\n \n  mapping(address => bool) private funders;\n  mapping(uint => address) private lutFunders;\n\n  modifier limitWithdraw(uint withdrawAmount) {\n    require(\n      withdrawAmount <= 100000000000000000,\n      \"Cannot withdraw more than 0.1 ether\"\n    );\n    _;\n  }\n\n  modifier onlyWhenNotStopped {\n    require(!isStopped);\n    _;\n  \n  }\n  modifier onlyWhenStopped {\n    require(isStopped);\n    _;\n  \n  }\n\n\n  receive() external payable {}\n\n  function addFunds() override external payable onlyWhenNotStopped {\n    address funder = msg.sender;\n    if (!funders[funder]) {\n      uint index = numOfFunders++;\n      funders[funder] = true;\n      lutFunders[index] = funder;\n    }\n  }\n\n  function stopContract() external onlyOwner {\n    isStopped = true;\n    // only owner should have access to\n  }\n\n  function resumeContract() external onlyOwner {\n    isStopped = false;\n    // only owner should have access to\n  }\n\n  /*function withdraw(uint withdrawAmount) override external onlyOwner onlyWhenNotStopped limitWithdraw(withdrawAmount) {\n    payable(msg.sender).transfer(withdrawAmount);\n  }*/\n\n  function withdraw(uint withdrawAmount) override external onlyOwner onlyWhenNotStopped limitWithdraw(withdrawAmount) {\n    (bool success, ) = owner.call{value: withdrawAmount}(\"\");\n    require(success, \"Transfer failed.\"); \n  }\n\n  function emergencyWithdraw() external onlyOwner onlyWhenStopped {\n    (bool success, ) = owner.call{value: address(this).balance}(\"\");\n    require(success, \"Transfer failed.\"); \n  }\n\n  \n  function getAllFunders() external view returns (address[] memory) {\n    address[] memory _funders = new address[](numOfFunders);\n\n    for (uint i = 0; i < numOfFunders; i++) {\n      _funders[i] = lutFunders[i];\n    }\n\n    return _funders;\n  }\n\n  function getFunderAtIndex(uint8 index) external view returns(address) {\n    return lutFunders[index];\n  }\n\n}\n",
  "sourcePath": "/Users/gleidetemporario/test1/blockchain-developer-bootcamp-project-final/contracts/DonateCharity.sol",
  "compiler": {
    "name": "solc",
    "version": "0.8.4+commit.c7e474f2.Emscripten.clang"
  },
  "schemaVersion": "3.4.4",
  "updatedAt": "2022-01-15T23:33:48.750Z",
  "networkType": "ethereum",
  "devdoc": {
    "kind": "dev",
    "methods": {},
    "version": 1
  },
  "userdoc": {
    "kind": "user",
    "methods": {},
    "version": 1
  }
}